:100000000C945B000C9483000C9483000C9483008C
:100010000C9483000C9483000C9483000C94830054
:100020000C9483000C9483000C9483000C94830044
:100030000C9483000C9483000C9483000C94830034
:100040000C94FB010C9483000C94E8040C94830042
:100050000C9483000C9483000C9483000C94830014
:100060000C9483000C948300000024272A000025B0
:10007000282B000023262904040404040404040299
:100080000202020202030303030303010204081035
:100090002040800102040810200102040810200002
:1000A0000000070002010000030406000000000039
:1000B00000000000870311241FBECFEFD4E0DEBF95
:1000C000CDBF11E0A0E0B1E0EAEEFCE002C0059097
:1000D0000D92A033B107D9F712E0A0E3B1E001C05F
:1000E0001D92A032B107E1F710E0C6EBD0E004C0EA
:1000F0002297FE010E946F06C43BD107C9F70E94F8
:10010000F4010C9473060C9400000E94200260938A
:10011000390170933A0180933B0190933C0108951B
:10012000EF92FF920F931F93CF93DF93E0903D01E7
:10013000F0903E0100913F011091400180919301A8
:1001400090919401A0919501B0919601A801970119
:10015000281B390B4A0B5B0B80912D0190912E01CE
:10016000AA2797FDA095BA2F82179307A407B50772
:10017000D0F5E0929301F0929401009395011093D1
:100180009601C3E5D1E000E010E0B80187E991E015
:100190000E94160460E071E087E991E00E9450043B
:1001A00049915991699179912AE030E087E991E08C
:1001B0000E9445040F5F1F4F0830110531F763E0BF
:1001C00071E087E991E00E94500440913D01509117
:1001D0003E0160913F01709140012AE030E087E9E3
:1001E00091E00E944504DF91CF911F910F91FF9004
:1001F000EF90089587E991E00E946604882351F109
:1002000087E991E00E946304909342018093410149
:1002100087369105C1F480E090E0FC01ED5AFE4F75
:100220001082118212821382FC01ED58FE4F10825F
:1002300011821282138204968032910571F781E057
:100240008093360108958337910521F41092360189
:100250001092380108950E942002209132013091BD
:1002600033014091340150913501621B730B840BB3
:10027000950B2091090130910A0140910B01509199
:100280000C01261737074807590708F50E94200276
:100290006093320170933301809334019093350160
:1002A0008091300190913101892B39F481E090E007
:1002B000909331018093300104C01092310110926B
:1002C000300160913001809107010E94EE02089593
:1002D000EF92FF920F931F93CF93DF930E942B0116
:1002E0000E94FA0080913601882309F448C00E94D8
:1002F00020022091390130913A0140913B01509107
:100300003C01621B730B840B950B60933D01709352
:100310003E0180933F01909340018DE1E82E81E002
:10032000F82E03E511E0C0E0D0E0FE01E35FFE4FF0
:1003300080810E9439039C01FE01ED5BFE4F918399
:1003400080838130910589F4F70180819181892B27
:1003500061F4F80180819181A281B3810196A11D90
:10036000B11D80839183A283B383F70121933193DD
:100370007F0122960C5F1F4FC031D105B1F60E945C
:100380009000DF91CF911F910F91FF90EF90089512
:100390000F931F93CF93DF9340E052EC61E070E046
:1003A00087E991E00E94690461E0809107010E9461
:1003B000D0020DE011E0E80160E088810E94D002E7
:1003C000229681E0CD31D807B9F761E0F80180814C
:1003D0000E94EE020E5F1F4F0C171D07B1F7DF9151
:1003E000CF911F910F9108950E948E020E94C80123
:1003F0000E946801FDCF1F920F920FB60F92112439
:100400008F939F93AF93BF9380919C0190919D0197
:10041000A0919E01B0919F010196A11DB11D8093F5
:100420009C0190939D01A0939E01B0939F01BF9169
:10043000AF919F918F910F900FBE0F901F901895C5
:1004400060919C0170919D0180919E0190919F010E
:1004500027E0660F771F881F991F2A95D1F72DE790
:1004600030E040E050E00E941C06CA01B901089546
:10047000AF92BF92CF92DF92EF92FF920F931F93B2
:100480005B016C0160919C0170919D0180919E01C6
:1004900090919F0147E0660F771F881F991F4A952B
:1004A000D1F72DE730E040E050E00E941C067901D2
:1004B0008A0160919C0170919D0180919E019091B3
:1004C0009F0137E0660F771F881F991F3A95D1F774
:1004D0002DE730E040E050E00E941C062E193F0955
:1004E000400B510B2A153B054C055D0510F31F9180
:1004F0000F91FF90EF90DF90CF90BF90AF90089555
:10050000019759F0FC01EE0FFF1FEE0FFF1F32970E
:100510008FB7F8943197F1F78FBF089578941092C0
:100520009C0110929D0110929E0110929F0184B532
:10053000826084BD84B5816084BD85B5826085BDDF
:1005400085B5816085BDEEE6F0E0808181608083C5
:10055000E1E8F0E080818260808380818160808337
:10056000E0E8F0E0808181608083E1EBF0E0808171
:1005700084608083E0EBF0E0808181608083EAE743
:10058000F0E08081846080838081826080838081CC
:10059000816080838081806880831092C10008958B
:1005A000282F30E0C90185579F4FFC0194912958AD
:1005B0003F4FF9018491882381F0E82FF0E0E8595A
:1005C000FF4FE491F0E0662329F480819095892320
:1005D000808308958081892B80830895482F50E07F
:1005E000CA0181569F4FFC012491CA0185579F4F34
:1005F000FC01949149585F4FFA0134913323C1F1C2
:10060000222331F1233021F4809180008F7705C0BF
:10061000243031F4809180008F7D8093800018C059
:10062000213019F484B58F7704C0223021F484B5C9
:100630008F7D84BD0DC0263021F48091B0008F776E
:1006400005C0273029F48091B0008F7D8093B000E1
:10065000E32FF0E0E359FF4FE491F0E0662329F443
:10066000808190958923808308958081892B808360
:100670000895482F50E0CA0181569F4FFC012491F4
:10068000CA0185579F4FFC01949149585F4FFA0169
:100690003491332319F420E030E035C0222331F1C6
:1006A000233021F4809180008F7705C0243031F40D
:1006B000809180008F7D8093800018C0213019F4D4
:1006C00084B58F7704C0223021F484B58F7D84BD3A
:1006D0000DC0263021F48091B0008F7705C02730FF
:1006E00029F48091B0008F7D8093B000E32FF0E07B
:1006F000EE58FF4FE491F0E0808120E030E0892364
:1007000011F021E030E0C901089508950895089599
:10071000CB01BA0130E040E050E00E94430508956B
:10072000CB01BA012AE030E040E050E00E944305EE
:10073000089580E090E02AE030E040E050E00E9440
:1007400043050895862F0E9426050895862F0E944E
:10075000260508958DE00E9426058AE00E94260560
:1007600008950F931F938C01CB01BA012AE030E06A
:1007700040E050E00E944305C8010E94AA031F9177
:100780000F9108950F931F938C0180E090E02AE071
:1007900030E040E050E00E944305C8010E94AA03F7
:1007A0001F910F9108950F931F938C01862F0E9424
:1007B0002605C8010E94AA031F910F9108950F9367
:1007C0001F938C01862F0E942605C8010E94AA0350
:1007D0001F910F910895EF92FF920F931F937A014B
:1007E0008B0177FF0BC08DE20E94260510950095C6
:1007F000F094E094E11CF11C011D111D2AE030E091
:1008000040E050E0C801B7010E9443051F910F91DD
:10081000FF90EF9008950F931F938C010E94EB03BC
:10082000C8010E94AA031F910F910895AB0166278A
:1008300057FD6095762F0E94EB0308950F931F9349
:100840008C01AB01662757FD6095762F0E94EB0364
:10085000C8010E94AA031F910F910895FA01DB01BC
:100860002115310521F4842F0E94260508952A3090
:10087000310519F40E94EB03089530E040E050E0A8
:10088000BF01CD010E94430508950F931F938C0172
:100890000E942E04C8010E94AA031F910F9108957F
:1008A000CB010E94360508950F931F938C01CB0155
:1008B0000E943605C8010E94AA031F910F91089556
:1008C0000E94DF0408950E94C00408950E94AF04AE
:1008D0000895CB01BA010E946E040895EF92FF9231
:1008E0000F931F937B018C0122E030E040E050E049
:1008F0000E943E06205C3D4B404F5F4FCA01B9014C
:10090000A80197010E943E06C901DA010197A109D9
:10091000B109292F3A2F4B2F552747FD5A9501969C
:10092000A11DB11D2093C50081508093C400E1EC4E
:10093000F0E0808180618083808188608083808115
:10094000806880831F910F91FF90EF900895982FFA
:100950008091C00085FFFCCF9093C60008958091E0
:1009600098019091990180589F4F20919A01309160
:100970009B01821B930B60E870E00E9409060895BA
:1009800040919A0150919B01809198019091990119
:100990008417950719F42FEF3FEF0FC0FA01E056C7
:1009A000FE4F2081CA01019660E870E00E940906AE
:1009B00090939B0180939A0130E0C9010895809142
:1009C0009A0190919B0190939901809398010895C9
:1009D0001F920F920FB60F9211242F933F934F93B4
:1009E0005F936F937F938F939F93AF93BF93EF9397
:1009F000FF934091C600E0919801F0919901CF01D9
:100A0000019660E870E00E9409069C0180919A01BD
:100A100090919B012817390739F0E056FE4F40832B
:100A20003093990120939801FF91EF91BF91AF917D
:100A30009F918F917F916F915F914F913F912F91F6
:100A40000F900FBE0F901F9018950895982F8091CA
:100A5000C00085FFFCCF9093C60008958091C00030
:100A600085FFFCCF8AE08093C6000895FC0107C093
:100A70008091C00085FFFCCF31969093C600908195
:100A80009923B1F708952F923F924F925F926F9200
:100A90007F928F929F92AF92BF92CF92DF92EF920E
:100AA000FF920F931F93DF93CF93CDB7DEB7A0973D
:100AB0000FB6F894DEBF0FBECDBF6B017C012901DC
:100AC0003A01611571058105910541F48091C000DD
:100AD00085FFFCCF80E38093C60049C08824992419
:100AE00054011E010894211C311C8101080D191D9F
:100AF000C701B601A30192010E941C06F8016083A0
:100B00000894811C911CA11CB11CC701B601A30152
:100B100092010E941C06C901DA016C017D01C11419
:100B2000D104E104F10409F79101280D391DBE013A
:100B30006F5F7F4FD501C4010197A109B109AC01D5
:100B40004819590911C0FA01E20FF31FE081EA3098
:100B500010F4E05D01C0E95C8091C00085FFFCCF2E
:100B6000E093C600215030406217730761F7A096EA
:100B70000FB6F894DEBF0FBECDBFCF91DF911F91AE
:100B80000F91FF90EF90DF90CF90BF90AF909F902C
:100B90008F907F906F905F904F903F902F9008952F
:100BA000EF92FF920F931F937B018C0197FF0FC071
:100BB0008091C00085FFFCCF8DE28093C600109528
:100BC0000095F094E094E11CF11C011D111D2AE038
:100BD00030E040E050E0C801B7010E9443051F919A
:100BE0000F91FF90EF90089520E130E040E050E059
:100BF0000E944305089528E030E040E050E00E9464
:100C00004305089522E030E040E050E00E944305B3
:100C1000089597FB092E07260AD077FD04D049D006
:100C200006D000201AF4709561957F4F0895F6F76D
:100C3000909581959F4F0895A1E21A2EAA1BBB1B88
:100C4000FD010DC0AA1FBB1FEE1FFF1FA217B30798
:100C5000E407F50720F0A21BB30BE40BF50B661FAE
:100C6000771F881F991F1A9469F760957095809572
:100C700090959B01AC01BD01CF01089597FB092E12
:100C800005260ED057FD04D0D7DF0AD0001C38F45B
:100C900050954095309521953F4F4F4F5F4F0895A8
:100CA000F6F790958095709561957F4F8F4F9F4F88
:100CB0000895AA1BBB1B51E107C0AA1FBB1FA617A3
:100CC000B70710F0A61BB70B881F991F5A95A9F7F5
:100CD00080959095BC01CD010895EE0FFF1F059002
:0A0CE000F491E02D0994F894FFCF81
:100CEA003A2000743A20000D00FA000000020003C6
:100CFA0000040005000600070008000900010001C1
:100D0A0000010001000100010001000100FA0000D9
:00000001FF
